:020000040000FA
:030000000200D328
:030033000214E3D1
:03004B00021C3F55
:03006B0002142953
:03007B00021482EA
:10008300021BA000000080FB1200E2B90003020083
:10009300CDE490010178B579028002F0A3D8FCD9B0
:1000A300FA9002B5AA82AB839000E5786C7904805C
:1000B30015E493A3AC82AD838A828B83F0A3AA82D7
:1000C300AB838C828D83D8E9D9E712213512008660
:1000D30075D0007581BF75100175110102008B7910
:1000E3000122FF00000000000000000000000000EB
:1000F30000003064426D00313364426D0031366478
:10010300426D00313864426D00323064426D00C587
:100113000200CA0201D00202D60203DC0204E20298
:100123000549015045522054657374657200526548
:100133006365697665720052656164790050455262
:100143003A2000202F3130303000525353493A20A7
:100153000064426D005265637627643A20004A6F5B
:1001630079737469636B205075736800737461727B
:10017300742F73746F70005472616E736D6974744D
:1001830065720053656E743A2000504552205465E1
:1001930073740001000000E80300003131202D20BA
:1001A30032343035204D487A003132202D2032341C
:1001B3003130204D487A003133202D20323431350F
:1001C300204D487A003134202D2032343230204DF6
:1001D300487A003135202D2032343235204D487A8B
:1001E300003136202D2032343330204D487A00310F
:1001F30037202D2032343335204D487A00313820D2
:100203002D2032343430204D487A003139202D20CE
:1002130032343435204D487A003230202D203234A8
:100223003530204D487A003231202D203234353597
:10023300204D487A003232202D2032343630204D82
:10024300487A003233202D2032343635204D487A17
:10025300003234202D2032343730204D487A00329A
:1002630035202D2032343735204D487A0032362060
:100273002D2032343830204D487A005472616E7329
:100283006D697474657200526563656976657200A1
:100293003130303020506B747300313030303020C7
:1002A300506B74730031303030303020506B7473C6
:1002B300003130303030303020506B7473003130C7
:1002C300302F7365636F6E640035302F7365636F12
:1002D3006E640032302F7365636F6E640031302FAC
:1002E3007365636F6E640068696768206761696E30
:1002F300006C6F77206761696E004368616E6E659D
:100303006C3A20004F7065726174696E67204D6F9F
:1003130064653A20005061636B6574207261746593
:100323003A200042757273742053697A653A20004B
:100333005458204F757470757420506F7765723AF6
:1003430020004761696E3A20006E030B7C030C8A20
:10035300030D98030EA6030FB40310C20311D003B9
:1003630012DE0313EC0314FA03150804161604171C
:1003730024041832041940041A1C05104E04005AB0
:1003830004014F05026304006D0401780402840430
:1003930003E803000010270000A086010040420F7D
:1003A300005805049104649C0432A60414B0040AA2
:1003B300770504BA0401C4040086050232343230DE
:1003C30000323433300032343331003235323000CE
:1003D300323533300032353331003235313000328B
:1003E30035313100313131300031313131002D2D92
:1003F3002D2D000A000000202020434378787878D0
:1004030020282029002020200000000000000000F8
:1004130000000000000000000000000000000000D9
:100423000000002020205449204C50570003070EA1
:100433000E1C191B1B1B1B191C0E0E0703181E0772
:1004430003181C060000061C1803071E18E066703C
:100453001008A3E066700A08A3E066700408A3E02E
:100463006622C3E09608A3E09608A3E09608A3E0FB
:1004730096A2D265D03322C3E7960809E796080906
:10048300E7960809E79622C3E09608A3E09608A337
:10049300E09608A3E09622080808EAC0E0EBC0E073
:1004A30086F0E7A4FA180986F0E7A42AFA18098661
:1004B300F0E7A42AFA180986F0E7A42AFA1986F0C5
:1004C300E7A4FBE5F02AFA190886F0E7A42BFBE57D
:1004D300F03AFA190886F0E7A42BFBE5F03AFA188C
:1004E300180986F0E7A4C5F02BFBE43AFA1908E7EC
:1004F300C5F0C6A426F6E5F03BFBE43AFA1886F00D
:10050300E7A4F6E5F00826F6E43B08F6E43A08F635
:10051300D0E0FBD0E0FA22E4CFC0E0E4CEC0E0E4D8
:10052300CDC0E0E4CCC0E075F020C3E633F608E6C6
:1005330033F608E633F608E633F6181818EC33FCFE
:10054300ED33FDEE33FEEF33FFC3EC9709ED97096F
:10055300EE9709EF97191919400FFFEC97FC09ED76
:1005630097FD09EE97FE191906D5F0BEECF709EDD4
:10057300F709EEF709EFF7191919D0E0FCD0E0FD00
:10058300D0E0FED0E0FF221205F218181812051A67
:100593001205E1191919221205E119191908080898
:1005A300E618181820E7E012051A1205F2181818B1
:1005B30022090909E719191920E7DC080808E618D0
:1005C300181820E70302051A1205F2181818120565
:1005D3001A1205F21818181205E119191922E4C3A1
:1005E30097F709E497F709E497F709E497F722E403
:1005F300C396F608E496F608E496F608E496F6221F
:10060300E026F608A3E036F608A3E036F608A3E0F2
:1006130036F622E026F008A3E036F008A3E036F031
:1006230008A3E036F022C3E0C696F608A3E0C69618
:10063300F608A3E0C696F608A3E0C696F622E0F60F
:1006430008A3E0F608A3E0F608A3E0F622E6F00824
:10065300A3E6F008A3E6F008A3E6F022CAC0E0E6AA
:10066300F0A308DAFAD0E0FA22CAC0E0E0A3C58218
:10067300CCC582C583CDC583F0A3C582CCC582C555
:1006830083CDC583DAE6D0E0CA22C3E498F8E499BF
:10069300F91206CE8026C3E49AFAE49BFBE920E72D
:1006A300E91206CEE498F8E499F922C3E498F8E451
:1006B30099F91206CEE498F8E499F9C3E49AFAE4B6
:1006C3009BFB22EB20E7CFE920E7E0B90010BB005A
:1006D30008E88AF084F8AAF022E4FBC8FA22EB7057
:1006E300227B10C833C8C933C9335007C39AC3DB4D
:1006F300F280069A50012ADBEAC833F4C8C933F4FE
:10070300C9FA2275F008E4C833C8C933C933C99A92
:10071300C99B5004C92AC93BD5F0ECFBC833F4C8C4
:10072300E4C9FA22700422600D18C6C333C608C692
:1007330033C6D5E0F41822251010AF08F510400297
:1007430015118008F51040021511D2AF22C0D02533
:100753001010AF08F510500205118008F510500273
:100763000511D2AFD0D0222510F58210AF08F510B5
:10077300400215118008F51040021511D2AF851102
:1007830083222510F582E43511F58322E4732510C5
:10079300C582C0E0E51134FFC583C0E0E510C39511
:1007A3008224F9F8E4C5A8858311858210C5A8E8D9
:1007B300CEF0A3E520F0A37808E608F0A3DEFAEF75
:1007C300F0A3E58124FBF8E608F0A3E608F0A3080C
:1007D30008E608F0A3E608F0A315811581D0E0FE32
:1007E300D0E0F815811581E8C0E0EEC0E022851164
:1007F30083851082E0A3FEE0A3F5207808E0A3F64A
:1008030008DFFAE0A3FFE0A3C0E0E0A3C0E0E0A3B9
:10081300C0E0E0A3C0E0E4C5A8858210858311C5CC
:10082300A8D083D08222C0D02510C582C0E0E511B4
:1008330034FFC583C0E0E510C3958224F310AF08ED
:100843008583118582108008858311858210D2AF3C
:10085300C8F0A3E9F0A3EAF0A3EBF0A37908E70952
:10086300F0A3D8FAECF0A3EDF0A3EEF0A3EFF0A31E
:10087300D0E0F0A3D0E0F0A3D0E0F0A3E520F0A314
:10088300E5F0F0A322851183851082E0C0E0A3E0A8
:10089300F9A3E0FAA3E0FBA37808E0F608A3DFFAE4
:1008A300E0FCA3E0FDA3E0FEA3E0FFA3E0C0E0A320
:1008B300E0C0E0A3E0F5D0A3E0F520A3E0A3F5F0CA
:1008C300E4C5A8858311858210C5A8D082D083D0C2
:1008D300E0F8D0E0327404800474028000C0E0F4D5
:1008E3000412076AD0E012065F2274048000CCC0B1
:1008F300E0EDC0E0E510C39CCCAD1150011D10AF7D
:10090300068C108D1180068C108D11D2AF12066CDF
:10091300D0E0FDD0E0FC22D083D082C5F0E493A3E5
:10092300C5F0C395F0F5F0E493A3C395F04005E556
:10093300F0048001E475F002A42582F582E5F03528
:1009430083F583E493A3C0E0E493C0E022D083D093
:1009530082CCC0E0E493A3600612097A1470FAE42F
:1009630093A360061209991470FAD0E0FCE493A3F0
:10097300C0E0E493C0E022C0E0E493A3D39C501012
:10098300E493A3C39C400AD0E0D0E0D0E002096D19
:10099300A3A3A3D0E022C0E0E493A36C7009D0E04A
:1009A300D0E0D0E002096DA3A3D0E0220000000054
:1009B300000000000070F8F87000000000387800B4
:1009C3000078380020F8F820F8F8200060F09C9CAC
:1009D3009010000060600080C0600000B0F8C8F8AC
:1009E300B0008000004078380000000000C0E03014
:1009F3001808000000081830E0C0000080A0E0C024
:100A0300C0E0A080008080E0E08080000000000063
:100A13000000000080808080808080000000000053
:100A23000000000000000080C0603000F0F808C83B
:100A330068F8F0002020F0F8000000003038088843
:100A4300F870000010188888F870000080C06030CB
:100A5300F8F80000F8F8888888080000E0F0988823
:100A6300880000003838080888F8780070F8C888CB
:100A7300F870000070F88888F8F0000000006060EB
:100A830060000000000060606000000080C0603013
:100A93001808000000404040404040000008183063
:100AA30060C08000101888C878300000F0F808C8CB
:100AB300C8F8F000E0F01818F0E0000008F8F88833
:100AC30088F87000E0F018080838300008F8F808D3
:100AD30018F0E00008F8F88888C8180008F8F888C3
:100AE30088D83800E0F0180808383000F8F880801B
:100AF300F8F800000008F8F80800000000000008FB
:100B0300F8F8080008F8F880E078180008F8F80802
:100B130000000000F8F870E070F8F800F8F8E0C0A2
:100B230080F8F800E0F0180818F0E00008F8F888FA
:100B330088F87000E0F0180818F0E00008F8F8886A
:100B430088F8700070F88888383000001808F8F8C2
:100B530008180000F8F80000F8F80000F8F80000A2
:100B6300F8F80000F8F8008000F8F8003878C0C002
:100B73007838000078F88080F8780000381888E822
:100B8300781818000000F8F8080800003060C080EA
:100B93000000000000000808F8F800002030180CDE
:100BA30018302000000000000000000000000C1CB2
:100BB3001000000000404040C080000008F8F840EA
:100BC30040C0800080C04040C080000080C04048DA
:100BD300F8F8000080C04040C080000080F0F88832
:100BE3009810000080C0404080C0400008F8F880A2
:100BF30040C08000004040D8D800000000004040C2
:100C0300D8D8000008F8F80080C04000000808F8B1
:100C1300F8000000C0C040C040C08000C0C04040D9
:100C2300C080000080C04040C080000040C08040C1
:100C330040C0800080C0404080C0400040C0C00031
:100C4300C0C0800080C04040C080000040E0F04051
:100C530040400000C0C00000C0C00000C0C0000091
:100C6300C0C00000C0C0000000C0C00040C0800081
:100C730080C0400000C0C00000C0C000C040404071
:100C8300C0C0000080C07038080800000000007871
:100C93007800000008083870C08000003038081859
:100CA300302038080080C060C080000000000000D1
:100CB3000000000000000D0D000000000000000017
:100CC30000000000020F0F020F0F020004041C1C9F
:100CD300070300000C0603010C0C0000070F080DAE
:100CE300070F0900000000000000000000010306D8
:100CF3000C08000000080C060301000000020301B9
:100D030001030200000000030300000000101C0C9C
:100D13000C000000000000000000000000000C0CAC
:100D23000C0000000C06030100000000070F0B0974
:100D3300080F070008080F0F080800000C0E0B0926
:100D43000C0C0000040C08080F0700000101010946
:100D53000F0F0900040C08080F070000070F08080D
:100D63000F07000000000E0F01000000070F080925
:100D73000F07000000080C0F030000000000060628
:100D8300060000000000161E0E000000000103060E
:100D93000C080000000101010101010000080C061C
:100DA3000301000000000D0D00000000070F0809FB
:100DB300090901000F0F01010F0F0000080F0F08B1
:100DC300080F070003070C08080E0600080F0F089A
:100DD3000C070300080F0F0808090C00080F0F0881
:100DE3000001000003070C08090F0F000F0F00009C
:100DF3000F0F000000080F0F08000000070F08087E
:100E03000F070000080F0F00030F0C00080F0F0857
:100E1300080E0F000F0F0000000F0F000F0F00014F
:100E2300030F0F0003070C080C070300080F0F083C
:100E330000000000030704161F1F1300080F0F0014
:100E4300010F0E00060E08090F06000000080F0F21
:100E530008000000070F08080F07000003070C0C29
:100E630007030000010F0E010E0F01000E0F010119
:100E73000F0E000000080F0F080000000C0F0B08F6
:100E8300080C0E0000000F0F08080000000000010E
:100E930003060C00000008080F0F0000000000000C
:100EA30000000000101010101010101000000000BF
:100EB30000000000060F0909070F0800080F0708C4
:100EC300080F0700070F08080C040000070F0808A5
:100ED300070F0800070F09090D050000080F0F0889
:100EE30000000000133724243F1F0000080F0F00E9
:100EF300000F0F000008080F0F0808001838202003
:100F03003F1F0000080F0F01030E0C000008080F1D
:100F13000F0808000F0F0007000F0F000F0F00004E
:100F23000F0F0000070F08080F070000203F3F289E
:100F3300080F0700070F08283F3F8000080F0F091D
:100F430000010100040D090A0E04000000070F0848
:100F53000C040000070F0808070F080003070C0C18
:100F630007030000030F0C030C0F0300080C070317
:100F7300070C0800202327341C0F03000C0E0A095A
:100F8300090C00000001070E080800000000000F14
:100F93000F00000008080E07010000000000000019
:100FA300000000000707040404070700C008C00985
:100FB300750801750900EB7808120727E50845F263
:100FC300F5F2C28DEA494BF5B6A28D50FCE5BBFDA7
:100FD300E5BAFC750801750900EB7808120727E5E7
:100FE30008F455F2F5F2ECFAEDFBD009D00822C073
:100FF30082C083121B5312153A79017A7D7B011249
:101003001B1D90017DE0C2E7F0640570387905127D
:1010130010D85004D2F08002C2F0A2F0E492E09023
:1010230002BDF0900182E0A2E740030210CA9001E2
:1010330080E0FA900101E06A60030210CA74019033
:1010430001020210C9E024F59002BAF090017DE09C
:10105300F91210D85004D2F08002C2F0A2F0E49248
:10106300E09002BDF0900185E0F8A3E0F99002B6AC
:10107300E8F0A3E9F09002BB7487F0A37401F09049
:1010830002BAE0F83395E0F9E82487F8E93401F986
:1010930088828983E09002BEF088828983A3E0A2DC
:1010A300E7501C9002B5E0FA900180E06A6010906E
:1010B300017EE054DF6441700674019002BFF0903A
:1010C3000180E09002B5F012153D121B648001F916
:1010D300D083D082227A7E7B01121B1D90017EE099
:1010E300A2E52274F51207918A828B831219EBE928
:1010F300640170047901805812153DA882A9839078
:101103000108E8F0A3E9F09002BBE4F0A3F0740156
:10111300900103F09002C17808120641900104780F
:1011230008120650121158A3A3E0F9121A5E121204
:101133004CE0FAA3E0FB121A6F121158E0FAA3E095
:10114300FB121A7F7AF27B0F121B7512153A790084
:101153007F040207F112115C22121250A3A322741E
:10116300F6120791EAFEEBFF8C088D09890A9001BC
:1011730003E07003121B457A67A90A1223BAE9F543
:101183000A121B91121B53740B250A90010AF012C9
:10119300125C6004786180027841E890010BF0747E
:1011A3008890010CF0900101E090010D121247A309
:1011B300A3E0F8A3E0F990010EE8F0A3E9F09001B1
:1011C30010EEF0A3EF121247E0F8A3E0F99001123A
:1011D300E8F0A3E9F07A0080208A82A882E5082853
:1011E300F582E5093400F583E0C0E0E82414F582D4
:1011F300E43401F583D0E0F00AEAC3950A40DA74D7
:101203000A250AF97A0A7B01121AF0121B64121BCF
:101213003612125C600FE4900102F07A4A7B0212EC
:10122300198DE060047E0080027E01900103E0706E
:1012330003121B4CEE7006900101E004F0EEF97FFF
:10124300030207F1F012124C2212125022900108ED
:10125300E0F8A3E0F58388822212115CA3A3A3E044
:1012630022C082C0839002BFE00210D274F312073F
:10127300918A088B09890AECFEEDFF12153DAA0A33
:101283009002BAE0F91223BAE9F50C750D00780C57
:101293001208DC9002BBE0FCA3E0FDAA08AB091234
:1012A300269C7402120750EE7001EF6021121A554A
:1012B300E9F5089002BEE0F83395E0F9E8C3950834
:1012C300F8E99400F98E828F83E8F0A3E9F0E490C3
:1012D30002BFF012153AAA0A9002BAE0F91223BA31
:1012E3007F060207F1C082C0837401900103F012EC
:1012F3001B450210D3C082C083E4900103F0121B8C
:101303004C0210D3748055C6FA53BEFBE59DA2E58B
:1013130050FAE59DA2E240F4007401697007744934
:101323004AF5C68005E970028AC6E5C6FAE59EFB62
:10133300EA6B70F943BE0422E59EA2E640037901FD
:1013430022E9700553C67F8008740169700343C6A0
:1013530080E5C6FAE59EFBEA6B70F9790022790114
:1013630012193A790212193A790312193A790412C5
:10137300193A7A327B001219BE80E312196F43FEC9
:1013830001C29043FE02C29143FE10C29443FD0288
:10139300C28153F3FD53FDFD438F0253F5FE53FF0B
:1013A300FE43F70143F3401213B412171112153A17
:1013B3002243F1021213D3E59EA2E0E492E0240F4C
:1013C300FA75FB8075F80074204AF5FC75FA532210
:1013D30043F48043F44043F4202253F3FD53FDFDD3
:1013E300438F0222C082C08379001213DDA2815091
:1013F300227800A281500478007900E8240108E9EA
:101403003400F9C3E894F4E99401A2D265D03340DF
:10141300E2790153F3FD900238E0A2E0928143FDAB
:1014230002D083D08222C0E074F1120829C2C5E53C
:1014330089603E7E00750801750900EE7808120781
:1014430027AF08E5895F6022EEC333F8E433F9126E
:101453001479F583E07002A3E06009121479121481
:10146300D812078FEFF45589F5890EEEC39408401F
:10147300C47F02020888E824FDF582E9340122C012
:10148300E074F1120829C2EBE58A603E7E0075081C
:1014930001750900EE7808120727AF08E58A5F6037
:1014A30022EEC333F8E433F91214CFF583E070026C
:1014B300A3E060091214CF1214D812078FEFF4556A
:1014C3008AF58A0EEEC3940840C480A5E8240DF57E
:1014D30082E9340222F583E0F8A3E0F583888222CF
:1014E300C0E074F1120829C2E8E58B603E7E007506
:1014F3000801750900EE7808120727AF08E58B5F2E
:101503006022EEC333F8E433F9121531F583E0704A
:1015130002A3E060091215311214D812078FEFF4F9
:10152300558BF58B0EEEC3940540C4021474E82466
:101533001DF582E9340222D2AF22C2AF2253F5FE57
:1015430053FFFE43F70143F3402274F71207917EE2
:1015530000A2A0E492E0FF7B067A107980120FAF1D
:101563008B09A909EF6008747F59C3945450097E0D
:1015730000E4900227F080237A037B0012198D0E7A
:10158300EEC3940340CB900227E0700D7401F0FE8C
:101593007A647B001219BE80027E00EEF97F02029C
:1015A30007F174F7120791E9FE7B067A107980122E
:1015B3000FAF8B09A909747F59F9E4C9F8C39428BB
:1015C300E494004028C3E8943CE494005003098069
:1015D3001CC3E8944AE4940050030980F1C3E894DF
:1015E30054E49400500509090980027904EE6970F6
:1015F300B680AAC292C280C2F989F9A2F950FC004E
:10160300000000D29222C292D280C2F989F9A2F9D3
:1016130050FC80EB74F112079174FE12073A890BA8
:10162300EAFEEBFF12271AEAF50C85108285118377
:10163300EEF0A3EFF074FF250BC333FA7900121613
:10164300F0750A0080238E828F83E0F874E02812FD
:10165300183812072785080E85090FA3AE82AF83BA
:10166300F50D1216DA40FB050AE50AC3950C40D6C0
:10167300E50BC33314FA79001216F0750A0080469D
:10168300851082851183E0F8A3E0F5838882E0F872
:10169300744028F508E412183C12072785080E85C4
:1016A300090F851082851183E02401F8A3E034003B
:1016B300F9851082851183E8F0A3E9F0750D001216
:1016C30016DA40FB050AE50AC3950C40B37402120F
:1016D30007507F080207F1850D08E508250EF8E499
:1016E300350F121826050DE50DC3940822EEC0E050
:1016F300E9FE74B04AF91215F6EEC4540F4410F91A
:101703001215F6740F5EF91215F6D0E0FE2253F3AC
:10171300FED28043FD0153F4FBD29243FE0453F304
:101723007FC28743FD8079AF1215F679401215F613
:1017330079A01215F679A61215F679A41215F67981
:10174300A21215F679C81215F6792F1215F679F843
:101753001215F679001215F6793812178C121764E0
:101763002274F81207917F007E00EFFAEEF9121649
:10177300F079001216090EEEC3948440ED0FEFC307
:10178300940840E47F010207F1EEC0E0E9FE7981AD
:101793001215F6EE02170979102274F312079189D4
:1017A3000A8A0B8B0CEAC394105073E9C394055057
:1017B3006D74FF250AC333FAE50B33333354F8F959
:1017C3001216F0850C0874E0250812183812072742
:1017D300AE08AF09F50D850D08E5082EF8E43F12B4
:1017E30016E540F2E50AC33324FFFAE50B3333333E
:1017F30054F8F91216F07440250CF508E412183C5D
:10180300120727AE08AF09F50A850A08E5082EF87E
:10181300E43F121826050AE50AC3940840EB7F0645
:101823000207F1F9E824AFF582E93409F583E4937B
:10183300F912160922F50874FF3400F509740378C8
:10184300082274F7120791EA7001EB60317C008A79
:10185300828B83E06015C0E08C081218CBD0E0F0D7
:101863008A828B83A3AA82AB8380058C081218DB40
:101873000CECC3941040D87A287B021216177F020F
:101883000207F174F8120791ECFEEDFF74081207DA
:1018930085E0F8A3E0F988828983EA7001EB6005AB
:1018A3007901121845EE7001EF6009EEFAEFFB794A
:1018B30002121845E5827002E5836009AA82AB83B0
:1018C30079031218450217871218CF22E508242836
:1018D300F582E43402F583221218CF7420F0222219
:1018E30022C082C083E912091A01030C19F818FCFB
:1018F3001800190419D2908010D291800CD29480D0
:1019030008D2817401900238F0D083D08222C08241
:10191300C083E912091A01033819251929192D1948
:101923003119C290800FC291800BC2948007C2818B
:10193300E4900238F080D2C082C083E912091A0110
:10194300036D194E1955195A196119639001E590E0
:10195300801863900280F7639010E590800C638099
:1019630002E580900238E06401F0809D7900121353
:101973003BE960107901121307790012133BE96008
:1019830003121361790012130722EBC313FBEA134B
:10199300FAEAF8EBF974FF28FA74FF39FB7400686C
:1019A3007003740069601300000000000000000071
:1019B300000000000000000080D72274F812079195
:1019C300EAFEEBFFEEF8EFF974FF28FE74FF39FF30
:1019D300740068700374006960097AE87B03121964
:1019E3008D80E17F010207F1C082C083906189E0AD
:1019F3004460F074099061FAF074159061B2F0E4F8
:101A03009061AEF09002F5E0602B74159061B2F036
:101A1300E49061AEF074689061EBF0746A9061ECED
:101A2300F074FB906244F074FC906247F043FD80D5
:101A33007901121ACB121B6479008052C082C083D1
:101A430090624A8047C082C083906249E0C4540FC9
:101A5300803BC082C0839002F48031C082C0837512
:101A6300F005E9A424D490618FF08022C082C08362
:101A7300EA906174F0EB906175F08012C082C083CC
:101A8300EA906172F0EB906173F08002E0F9D08329
:101A9300D08222C082C083E912091A0004C71AAC9B
:101AA3001AB71ABB1ABF1AC31A7A25EA906190F0C3
:101AB300790080DA7A8580F37AA580EF7AC580EBA6
:101AC3007AE580E7790180EAC082C083E9700DC2BC
:101AD300877A08001AEA70FB7443800BD2877A086E
:101AE300001AEA70FB744F9002F4F080A174F712AD
:101AF300079175E1EE7591FD7C008003121B0CECE0
:101B0300C39940F87F020207F18C08EA2508F582A1
:101B1300EB3400F583E0F5D90C22C082C083800D3D
:101B2300E5D98A828B83F0A3AA82AB8319E970F08B
:101B3300021A9175E1E9E591A2E150FA7591FD79F7
:101B4300002275E1EC75E1E32275E1EF75E1EC222A
:101B5300C082C0839061A3E0C2E6F0539AFE021AEA
:101B630091C082C0839061A3E0D2E6F0439A010260
:101B73001A91C082C083A2AFE492E0FCC2AF90028C
:101B830039EAF0A3EBF0ECA2E092AF021A91C08223
:101B9300C083906193E0542270F8021A91C0E074FC
:101BA300F2120829A2AFE492E0FEC2AFE5E9A2E691
:101BB300501E900239E07002A3E0600E900239E0FB
:101BC300F8A3E0F583888212078F759B0053E9BF62
:101BD300EEA2E092AF7F0102088874F712079143E7
:101BE300E40CE5E4C3EB942040097EFF7FFF12136E
:101BF30061800F8A088B0974037808120727AE08DF
:101C0300AF09EFF5DBEEF5DA75E54453AFFEC2B984
:101C13007F020207F1C082C083A2AFE492E0F8C260
:101C2300AF90023BEAF0A3EBF0E8A2E092AFD083DF
:101C3300D08222D2B943E40222C2B922C0E074F2B4
:101C430012082990023BE07002A3E0600E90023B71
:101C5300E0F8A3E0F583888212078F7F01020888EA
:101C6300C082C0837401900297F0D083D08222C0D7
:101C730082C083900298E06401F0E06005121C3694
:101C83008003121C3C80E374F112079174AC1207B9
:101C93003A7414120785AC82AD8375830275823D55
:101CA300744012066C851082851183F09002C1780E
:101CB3000812064174021207857808120650900232
:101CC300C17808120641740E12078578081206506F
:101CD3009002C17808120641740A12078578081227
:101CE30006507E007F007401120785E4F012221D66
:101CF300121ACB90027D74EFF0A374BE12212970E7
:101D0300031213611212E812176475080A750903A6
:101D130078081208DC7C017D037AF67B02121886B0
:101D23007402120750021E517406120785C082C046
:101D3300839003667808120641D083D08278081214
:101D43000603740212078578081206509002C178C0
:101D530008120641740E1207857808120650900285
:101D6300C17808120641740A1207857808120650D2
:101D73009003667808120641740E120785780812DC
:101D830006161213E7E96401702C740112078574B7
:101D930001F09003667808120641740E12078578E5
:101DA300081206509002C17808120641740A1207FD
:101DB300857808120650740A1207857808120641BE
:101DC30090036A780C1206417808790C12049A740D
:101DD3000A120785C082C083740E120785780C121D
:101DE3000641D083D082780C1206037808790C124E
:101DF300051A78081208D87C167D037A107B0379BC
:101E030001122123120750EEF8EFF97A207B00121A
:101E130006C68808E9F5093395E0F50AF50B780855
:101E23001208D87C247D037A1D7B037902122123B7
:101E3300120750740E1207851208ED7C007D007A9C
:101E4300287B031221211207507903121911121250
:101E530064E960FA7412120785AC82AD8379677AFC
:101E63008D7B0212126FE960E579031218E4900288
:101E73008D780812064174061207857808120650F9
:101E83007401120785E0601B740612078578081237
:101E9300064174021207857808120650740112076E
:101EA30085E4F0851082851183E0C333F8E433F9C8
:101EB3007414120785E58228F8E58339F988828945
:101EC30083E0FAA3E0FBC3EE9AFEEF9BFF741212CA
:101ED3000785E0FAA3E0FB88828983EAF0A3EBF0AD
:101EE30088828983E02EFEA3E03FFF85108285115F
:101EF30083E004F064207002E4F07402120785C0EA
:101F030082C08374061207857808120641D083D0F5
:101F130082780812045070159003667808120641FF
:101F230074021207857808120616021D73740212D2
:101F33000785C082C083740612078578081206419C
:101F4300D083D082780812048A4003021D2B740ABE
:101F5300120785C082C083740612078578081206AB
:101F630041D083D082780812060374021207857861
:101F730008120629740A1207857808120650740697
:101F8300120785C082C0839003667808120641D089
:101F930083D08278081206037402021D6B74F11257
:101FA300079174FC12073A9002C178081206419017
:101FB300027D7420F0A3742512212970031213618A
:101FC30012220C121A961221CC8A0C8B0D8C0E8DB8
:101FD3000F851082851183780C1206501212F812A5
:101FE30021BB890CAA0C7B00780079801206CEE80D
:101FF300FAE9FB121BDD7A637B1C121C18121540D5
:102003009002C1780C120641900283780C1206509C
:102013007A00EA2487F582E43402F583EAF00AEAD7
:10202300C3940640ED121764750C3F750D03780CCD
:102033001208DC7C317D037AF67B0280339002C187
:1020430078081206419002C1780C1206419002836F
:10205300780C1206501217647903121911750C3F8C
:10206300750D03780C1208DC7C317D037A5D7B03EC
:10207300121886740212075012154DE960FA121CE9
:1020830072121764750C00750D00780C1208DC7C55
:102093004A7D037AF67B0212188674021207508077
:1020A300047A00EAF0900298E0609212154DE9601C
:1020B30003121C72851082851183780C12064178F5
:1020C3000C790812047A504C900297E0640170D5A1
:1020D300790A7C837D027AEF7BBE121162900366DC
:1020E300780C120641900283780C12061690036650
:1020F300780812060378081208D87C007D007A5607
:102103007B03122121120750E4900297F079031206
:10211300193A8091900298E070877A01808579035B
:102123001225C7740422F07A7D7B021210E6E9645B
:102133000122E4900297F0900298F090027F7407D6
:10214300F0A37420F0E4900282F012137E1219EBD4
:10215300E96401700312136179011218E47AF67BC2
:10216300021224A81213E7E9640170F87A5E7B0176
:102173001219BE121764122199E9900281F01221FB
:10218300AAE9FA7005121FA0800874016A7003128D
:102193001C8A121361227ACD7B0479011218457AC5
:1021A3004C7B051223D7227AD77B04790112184579
:1021B3007A557B051223D7227AE87B04790112181A
:1021C300457A837B051223D72274F51207917AF699
:1021D3007B0479011218457A747B051223D7E9F53C
:1021E3000875090074027808120727E5082464F5C6
:1021F30082E5093405F5837808120641AA08AB097C
:10220300AC0AAD0B7F040207F17A037B0579011257
:1022130018457AF17B021223D7227A157B057901BF
:102223001218457A8C7B051223D722C082C083E91A
:10223300120950000A018822025822118E22817C41
:1022430022846A22855E22896422918222A57022D9
:10225300B5762294227A8F7B05803A7A947B058027
:10226300347A997B05802E7A9E7B0580287AA37B1E
:102273000580227AA87B05801C7AAD7B0580167ABF
:10228300B27B0580107AB77B05800A7ABC7B058018
:10229300047AC17B05D083D0822274F11207917432
:1022A300FB12073A7401120785EAF0A3EBF0A3ECE3
:1022B300F0A3EDF07A997B027401120785C082C006
:1022C300839002C17808120641D083D08278081225
:1022D300046550227401851082851183F0120785ED
:1022E300780812064178081205F2740112078578FE
:1022F300081206508008E4851082851183F074016A
:10230300120785780C1206419005C678081206411B
:10231300780C79081205B4E50824308A828B83F09F
:10232300A3AA82AB837401120785780C120641902D
:1023330005C67808120641780C79081205B47401B1
:10234300120785780C1206507401120785C082C0EB
:10235300839002C17808120641D083D08278081294
:102363000450709A851082851183E0600B742D8A66
:10237300828B83F0A30AAB83E48A828B83F0EA2403
:10238300FF1AEB34FFFB7899790280161223C6EA11
:1023930024FF1AEB34FFFBEC88828983F0A3A88225
:1023A300A983C3E89AE99B40E37A997B02740512F7
:1023B30007507F080207F1E9FBEAF9EBC3995002E2
:1023C300EBF9228A828B83E0FC88828983E08A820C
:1023D3008B83F02274F51207918A088B09750A0022
:1023E300750B018050E50B604C12248EE0FAA3E0DC
:1023F300FB79021218457B3C7A00790312179D1270
:10240300179AE914FA7B3E790312179D750B007E28
:10241300007F001215A5E9640460047E007F00EECE
:1024230024010EEF3400FFC3EE94F4EF9401A2D223
:1024330065D03340DE1213E7E9640160421215A54B
:10244300E96403701A7401250AC0E08508828509CE
:1024530083A3A3E0F5F0D0E084E5F0F50A808A12C7
:1024630015A5E9640260030223E8E50A700C8508F8
:1024730082850983A3A3E01480E1150A0223EC12E9
:10248300248EA3A3E0F97F040207F1E50A75F003A4
:10249300A4F8A9F0850882850983E028FAA3E03926
:1024A3008A82F5832274F312079174D412073A8A4D
:1024B300088B09851082851183AC82AD83758305F2
:1024C3007582CA740E12066C740E120785AC82AD47
:1024D300837583057582D8741E12066C12179AE9E8
:1024E300F50A750C04750D00780C1208DC121A3FFE
:1024F30012222EEAFCEBFD7407120785AA82AB8336
:102503001227367402120750121A48E92430C0E029
:10251300740B120785D0E0F0AA08AB0912271A8AB8
:102523000C8B0DAE0CAF0D740E120785AA82AB8314
:1025330012271AEA2EF8EB3FF9C3E50A98E499400B
:102543000BAC08AD09AA82AB831226E47A007B06A2
:1025530079001218E27A087B0679011218E27A10E0
:102563007B0679021218E27A187B0679031218E2C5
:10257300851082851183AA82AB8379011218457471
:102583000E120785AA82AB8379021218457AF67B6D
:102593000579031218457B007A0079011218E37B51
:1025A300017A0079021218E37B027A017901121889
:1025B300E37B037A0179021218E3742C1207507F2C
:1025C300060207F174F1120791890E8A0C8B0DEC48
:1025D300FEEDFF740F120785780812064112179A51
:1025E300E9F50F12267D7A0080041226720AEAC3E7
:1025F300950F505BE50C7002E50D6020850C82851C
:102603000D83E06017C0E0122660D0E0F0850C82F5
:10261300850D83A385820C85830D80D18882898370
:10262300E0600CC0E0122660D0E012269180BEEE7E
:102633007001EF60B58E828F83E060AEC0E012263A
:1026430060D0E0F08E828F83A3AE82AF83809E7AC8
:10265300A57B02A90E1218457F080207F18A08E537
:10266300081226682224A5F582E43402F583228A1F
:1026730008E5081226687420F022AA08AB09AC0A00
:10268300AD0B12229D8A088B09A808A90922F0889C
:10269300828983A3A882A9832274F71207917409FC
:1026A300120785E0FEA3E0FFEAF8EBF980188C82BD
:1026B3008D83E088828983F0A3A882A9838C828D8D
:1026C30083A3AC82AD838E088F0974FF25081E7423
:1026D300FF3509FFE5087002E50970D27F020207A2
:1026E300F174F8120791EAF8EBF98005A3AA82AB1B
:1026F300838A828B83E070F48C828D83E0A3AC8227
:10270300AD838A828B83F0A3AA82AB8370EAE8FA53
:10271300E9FB7F010207F1C082C0838A828B838039
:1027230001A3E070FCE582C39AFAE5839BFBD083A7
:10273300D0822274F71207917409120785E0FEA371
:10274300E0FFEAF8EBF98E088F0974FF25081E7481
:10275300FF3509FFE5087002E50960358C828D833A
:10276300E0A3AC82AD838A828B83F0A3AA82AB837E
:1027730070D4EEFCEFFD74FF2C1E74FF3DFFEC7074
:1027830001ED600DE48A828B83F0A3AA82AB838080
:0A279300E1E8FAE9FB7F020207F11A
:04000005000000D324
:00000001FF
