:020000040000FA
:030000000200D328
:030033000212AF07
:03006B000211EB94
:03007B0002125816
:10008300020E6100000080FB1200E2B900030200CF
:10009300CDE4900101784379028002F0A3D8FCD922
:1000A300FA900243AA82AB839000E578D07901806D
:1000B30015E493A3AC82AD838A828B83F0A3AA82D7
:1000C300AB838C828D83D8E9D9E71216B5120086EB
:1000D30075D0007581BF75100175110102008B7910
:1000E3000122537769746368004C6967687400324E
:1000F300343230003234333000323433310032356D
:10010300323000323533300032353331003235315D
:10011300300032353131003131313000313131315C
:10012300002D2D2D2D002020204343787878782032
:1001330028202900202020000000000000000000EB
:1001430000000000000000000000000000000000AC
:1001530000002020205449204C5057005265616410
:1001630079004A6F79737469636B20507573680003
:1001730053656E6420436F6D6D616E64004C6967F7
:1001830068742053776974636800446576696365AE
:10019300204D6F64653A2000FF000000000000005E
:1001A300000000004302014A0202050302000000AE
:1001B30000E0F608A3E0F608A3E0F608A3E0F622C1
:1001C300E6F008A3E6F008A3E6F008A3E6F022CAE7
:1001D300C0E0E6F0A308DAFAD0E0FA22CAC0E0E011
:1001E300A3C582CCC582C583CDC583F0A3C582CC0C
:1001F300C582C583CDC583DAE6D0E0CA2270042266
:10020300600D18C6C333C608C633C6D5E0F418223A
:10021300251010AF08F510400215118008F51040A5
:10022300021511D2AF22C0D0251010AF08F510501F
:100233000205118008F51050020511D2AFD0D0226B
:100243002510F58210AF08F510400215118008F54E
:100253001040021511D2AF851183222510F582E4D7
:100263003511F58322E4732510C582C0E0E511340E
:10027300FFC583C0E0E510C3958224F9F8E4C5A85F
:10028300858311858210C5A8E8CEF0A3E520F0A3ED
:100293007808E608F0A3DEFAEFF0A3E58124FBF883
:1002A300E608F0A3E608F0A30808E608F0A3E608CA
:1002B300F0A315811581D0E0FED0E0F815811581FA
:1002C300E8C0E0EEC0E022851183851082E0A3FE42
:1002D300E0A3F5207808E0A3F608DFFAE0A3FFE047
:1002E300A3C0E0E0A3C0E0E0A3C0E0E0A3C0E0E47B
:1002F300C5A8858210858311C5A8D083D08222C06A
:10030300D02510C582C0E0E51134FFC583C0E0E508
:1003130010C3958224F310AF088583118582108062
:1003230008858311858210D2AFC8F0A3E9F0A3EA50
:10033300F0A3EBF0A37908E709F0A3D8FAECF0A354
:10034300EDF0A3EEF0A3EFF0A3D0E0F0A3D0E0F044
:10035300A3D0E0F0A3E520F0A3E5F0F0A3228511FC
:1003630083851082E0C0E0A3E0F9A3E0FAA3E0FBF9
:10037300A37808E0F608A3DFFAE0FCA3E0FDA3E01E
:10038300FEA3E0FFA3E0C0E0A3E0C0E0A3E0F5D05C
:10039300A3E0F520A3E0A3F5F0E4C5A885831185C8
:1003A3008210C5A8D082D083D0E0F8D0E0327402A6
:1003B3008000C0E0F404120243D0E01201D222D044
:1003C30083D082C5F0E493A3C5F0C395F0F5F0E4C0
:1003D30093A3C395F04005E5F0048001E475F002B2
:1003E300A42582F582E5F03583F583E493A3C0E089
:1003F300E493C0E022D083D082CCC0E0E493A36036
:10040300061204221470FAE493A360061204411442
:1004130070FAD0E0FCE493A3C0E0E493C0E022C010
:10042300E0E493A3D39C5010E493A3C39C400AD06D
:10043300E0D0E0D0E0020415A3A3A3D0E022C0E003
:10044300E493A36C7009D0E0D0E0D0E0020415A3DC
:10045300A3D0E02200000000000000000070F8F8C4
:1004630070000000003878000078380020F8F82089
:10047300F8F8200060F09C9C901000006060008001
:10048300C0600000B0F8C8F8B000800000407838C1
:100493000000000000C0E030180800000008183019
:1004A300E0C0000080A0E0C0C0E0A080008080E049
:1004B300E080800000000000000000008080808059
:1004C3008080800000000000000000000000008029
:1004D300C0603000F0F808C868F8F0002020F0F899
:1004E3000000000030380888F87000001018888871
:1004F300F870000080C06030F8F80000F8F88888D1
:1005030088080000E0F09888880000003838080860
:1005130088F8780070F8C888F870000070F8888848
:10052300F8F0000000006060600000000000606000
:100533006000000080C060301808000000404040A8
:10054300404040000008183060C08000101888C880
:1005530078300000F0F808C8C8F8F000E0F0181888
:10056300F0E0000008F8F88888F87000E0F0180858
:100573000838300008F8F80818F0E00008F8F888A0
:1005830088C8180008F8F88888D83800E0F01808F8
:1005930008383000F8F88080F8F800000008F8F810
:1005A3000800000000000008F8F8080008F8F880C8
:1005B300E078180008F8F80800000000F8F870E088
:1005C30070F8F800F8F8E0C080F8F800E0F01808D8
:1005D30018F0E00008F8F88888F87000E0F01808D0
:1005E30018F0E00008F8F88888F8700070F8888838
:1005F300383000001808F8F808180000F8F8000070
:10060300F8F80000F8F80000F8F80000F8F80080A7
:1006130000F8F8003878C0C07838000078F8808097
:10062300F8780000381888E8781818000000F8F8FF
:10063300080800003060C0800000000000000808C7
:10064300F8F800002030180C1830200000000000DB
:100653000000000000000C1C10000000004040409F
:10066300C080000008F8F84040C0800080C04040CF
:10067300C080000080C04048F8F8000080C04040BF
:10068300C080000080F0F8889810000080C04040CF
:1006930080C0400008F8F88040C08000004040D887
:1006A300D800000000004040D8D8000008F8F80047
:1006B30080C04000000808F8F8000000C0C040C037
:1006C30040C08000C0C04040C080000080C04040A7
:1006D300C080000040C0804040C0800080C04040D7
:1006E30080C0400040C0C000C0C0800080C0404007
:1006F300C080000040E0F04040400000C0C0000067
:10070300C0C00000C0C00000C0C00000C0C00000E6
:1007130000C0C00040C0800080C0400000C0C000D6
:1007230000C0C000C0404040C0C0000080C070385E
:1007330008080000000000787800000008083870FE
:10074300C080000030380818302038080080C060AE
:10075300C0800000000000000000000000000D0D3C
:10076300000000000000000000000000020F0F0264
:100773000F0F020004041C1C070300000C060301F6
:100783000C0C0000070F080D070F09000000000004
:1007930000000000000103060C08000000080C061E
:1007A3000301000000020301010302000000000333
:1007B3000300000000101C0C0C00000000000000EF
:1007C3000000000000000C0C0C0000000C060301EC
:1007D30000000000070F0B09080F070008080F0FA0
:1007E300080800000C0E0B090C0C0000040C080890
:1007F3000F070000010101090F0F0900040C08088D
:100803000F070000070F08080F07000000000E0F76
:1008130001000000070F08090F07000000080C0F74
:100823000300000000000606060000000000161E7C
:100833000E000000000103060C0800000001010186
:100843000101010000080C060301000000000D0D6A
:1008530000000000070F0809090901000F0F01013B
:100863000F0F0000080F0F08080F070003070C08FD
:10087300080E0600080F0F080C070300080F0F08E7
:1008830008090C00080F0F080001000003070C08FB
:10089300090F0F000F0F00000F0F000000080F0FCC
:1008A30008000000070F08080F070000080F0F00DB
:1008B300030F0C00080F0F08080E0F000F0F0000A6
:1008C300000F0F000F0F0001030F0F0003070C08A9
:1008D3000C070300080F0F080000000003070416AD
:1008E3001F1F1300080F0F00010F0E00060E08094B
:1008F3000F06000000080F0F08000000070F08088C
:100903000F07000003070C0C07030000010F0E0183
:100913000E0F01000E0F01010F0E000000080F0F54
:10092300080000000C0F0B08080C0E0000000F0F4E
:10093300080800000000000103060C00000008087E
:100943000F0F000000000000000000001010101046
:10095300101010100000000000000000060F09092D
:10096300070F0800080F0708080F0700070F0808FC
:100973000C040000070F0808070F0800070F0909F8
:100983000D050000080F0F08000000001337242492
:100993003F1F0000080F0F00000F0F000008080F93
:1009A3000F080800183820203F1F0000080F0F0110
:1009B300030E0C000008080F0F0808000F0F0007B4
:1009C300000F0F000F0F00000F0F0000070F0808A4
:1009D3000F070000203F3F28080F0700070F0828D4
:1009E3003F3F8000080F0F0900010100040D090AB1
:1009F3000E04000000070F080C040000070F08088E
:100A0300070F080003070C0C07030000030F0C0378
:100A13000C0F0300080C0703070C080020232734DE
:100A23001C0F03000C0E0A09090C00000001070E3D
:100A3300080800000000000F0F00000008080E0760
:100A4300010000000000000000000000070704048C
:100A530004070700C082C083120E3ED2AF79017A29
:100A63007D7B01120E2690017DE0C2E7F0640570E4
:100A7300387905120B365004D2F08002C2F0A2F08E
:100A8300E492E0900301F0900182E0A2E7400302C8
:100A93000B2E900180E0FA900101E06A6003020BE3
:100AA3002E7401900102020B2DE024F59002FEF05A
:100AB30090017DE0F9120B365004D2F08002C2F0AF
:100AC300A2F0E492E0900301F0900185E0F8A3E046
:100AD300F99002FAE8F0A3E9F09002FF7487F0A31B
:100AE3007401F09002FEE0F83395E0F9E82487F80A
:100AF300E93401F988828983E0900302F0888289CE
:100B030083A3E0A2E7501C9002F9E0FA900180E091
:100B13006A601090017EE054DF64417006740190B6
:100B23000303F0900180E09002F9F0C2AF120E517E
:100B3300020E4C7A7E7B01120E2690017EE0A2E526
:100B43002274F512026A8A828B83120DDAE9640138
:100B5300700479018073C2AFA882A983900108E869
:100B6300F0A3E9F09002FFE4F0A3F0740190010315
:100B7300F090030E78081201B49001047808120172
:100B8300C375F005900108121247A3A3A3A3E0A421
:100B930024D490618F120CBBE8906174F0E99061EA
:100BA30075120CD0E8906172F0E9906173F0A2AF16
:100BB300E492E0FAC2AF9001FD7457F0A3740AF017
:100BC300EAA2E092AFD2AF79007F040202CA74F6C0
:100BD30012026AEAFEEBFF8C088D09890A90010371
:100BE300E0700675E1EC75E1E3E9C39467400375D2
:100BF3000A67906193E0542270F8120E3E740B253D
:100C03000A90010AF0120CC86004786180027841EE
:100C1300E890010BF0748890010CF0900101E090D2
:100C2300010D120CD090010EE8F0A3E9F090011031
:100C3300EEF0A3EF120CBB900112E8F0A3E9F07AF7
:100C43000080208A82A882E50828F582E50934001D
:100C5300F583E0C0E0E82414F582E43401F583D0A1
:100C6300E0F00AEAC3950A40DA740A250AF97A0A17
:100C73007B01120DFD120E5175E1E9E591A2E150E0
:100C8300FA7591FD120CC8600FE4900102F07A4AE4
:100C93007B02120D7CE060047900800279019001EF
:100CA30003E0700675E1EF75E1ECE9700690010170
:100CB300E004F07F030202CAF090010812124BE035
:100CC300F8A3E0F922120CD6A3A3A3E022F0120C9E
:100CD300D680EC90010812124FA3A322C008C009CA
:100CE300750801750900EB7808120200E50845F262
:100CF300F5F2C28DEA494BF5B6A28D50FCE5BBFD7A
:100D0300E5BAFC750801750900EB7808120200E5E5
:100D130008F455F2F5F2ECFAEDFBD009D008227491
:100D23008055C6FA53BEFBE59DA2E550FAE59DA2A8
:100D3300E240F400740169700774494AF5C68005FE
:100D4300E970028AC6E5C6FAE59EFBEA6B70F943D1
:100D5300BE0422E59EA2E64003790122E970055311
:100D6300C67F8008740169700343C680E5C6FAE54F
:100D73009EFBEA6B70F9790022EBC313FBEA13FACB
:100D8300EAF8EBF974FF28FA74FF39FB7400687012
:100D930003740069601300000000000000000000FD
:100DA3000000000000000080D72274F812026AEAF3
:100DB300FEEBFFEEF8EFF974FF28FE74FF39FF74C2
:100DC3000068700374006960097AE87B03120D7C84
:100DD30080E17F010202CAC082C083906189E0443E
:100DE30060F074099061FAF074159061B2F0E490C8
:100DF30061AEF0120E517900804F74F712026A75DA
:100E0300E1EE7591FD7C0080108C08EA2508F582DF
:100E1300EB3400F583E0F5D90CECC39940EB7F028A
:100E23000202CAC082C083800DE5D98A828B83F017
:100E3300A3AA82AB8319E970F0800EC082C08390AD
:100E430061A3E0C2E6F0539AFED083D08222C0822F
:100E5300C0839061A3E0D2E6F0439A0180EBC0E047
:100E630074F2120302A2AFE492E0FEC2AFE5E9A27C
:100E7300E650199001FDE07002A3E060099001FDC6
:100E8300121247120268759B0053E9BFEEA2E0926B
:100E9300AF7F01020361C292C280C2F989F9A2F94C
:100EA30050FC00000000D29222C292D280C2F98983
:100EB300F9A2F950FC80EB74F112026A74FE12027B
:100EC30013890BEAFEEBFF1217ADEAF50C851082CE
:100ED300851183EEF0A3EFF074FF250BC333FA798A
:100EE30000120F8E750A0080238E828F83E0F874C0
:100EF300E0281210CA12020085080E85090FA3AE5E
:100F030082AF83F50D120F7840FB050AE50AC395FE
:100F13000C40D6E50BC33314FA7900120F8E750A11
:100F2300008041851082851183121247E0F87440D6
:100F330028F508E41210CE12020085080E85090F69
:100F4300851082851183E02401F8A3E03400F9853C
:100F53001082851183E8F0A3E9F0750D00120F7874
:100F630040FB050AE50AC3950C40B8740212022936
:100F73007F080202CA850D08E508250EF8E4350F3F
:100F83001210B8050DE50DC3940822EEC0E0E9FE8A
:100F930074B04AF9120E99EEC4540F4410F9120EAC
:100FA30099740F5EF9120E99D0E0FE2253F3FED22C
:100FB3008043FD0153F4FBD29243FE0453F37FC2FB
:100FC3008743FD8079AF120E997940120E9979A06B
:100FD300120E9979A6120E9979A4120E9979A2127A
:100FE3000E9979C8120E99792F120E9979F8120E6B
:100FF300997900120E997981120E997938120E9906
:101003001210072274F812026A7F007E00EFFAEED4
:10101300F9120F8E7900120EAC0EEEC3948440EDDC
:101023000FEFC3940840E47F010202CA74F3120273
:101033006A890A8A0B8B0CEAC394105073E9C39430
:1010430005506D74FF250AC333FAE50B333333546C
:10105300F8F9120F8E850C0874E025081210CA12D5
:101063000200AE08AF09F50D850D08E5082EF8E47A
:101073003F120F8340F2E50AC33324FFFAE50B3333
:10108300333354F8F9120F8E7440250CF508E4122B
:1010930010CE120200AE08AF09F50A850A08E5086A
:1010A3002EF8E43F1210B8050AE50AC3940840EB92
:1010B3007F060202CAF9E82457F582E93404F5836E
:1010C300E493F9120EAC22F50874FF3400F50974A9
:1010D3000378082274F712026AEA7001EB60307C2D
:1010E300008A828B83E06013C0E0121115D0E0F018
:1010F3008A828B83A3AA82AB838006121115742084
:10110300F00CECC3941040D97AFF7B01120EBA02A3
:101113000E218C08E50824FFF582E43401F58322CF
:101123007901121359790212135979031213597958
:10113300041213597A327B00120DAD80E379001249
:101143000D56E960107901120D227900120D56E94E
:1011530060031211237900120D2243FE01C2904352
:10116300FE02C29143FE10C29443FD02C2811211DA
:10117300E112172243F10243F48043F44043F42085
:10118300E59EA2E0E492E0240FFA75FB8075F80077
:1011930074204AF5FC75FA53120FAFD2AF22C08206
:1011A300C08379001211E1A28150227800A28150FC
:1011B3000478007900E8240108E93400F9C3E894CD
:1011C300F4E99401A2D265D03340E2790153F3FDEF
:1011D30090023AE0A2E0928143FD02020E4C53F3E7
:1011E300FD53FDFD438F0222C0E074F1120302C2DE
:1011F300C5E58960487E00750801750900EE780829
:10120300120200AF08E5895F602CEEC333F8E433C4
:10121300F9E8240FF582E93402F583E07002A3E0D4
:10122300600EE8240FF582E93402121245120268B7
:10123300EFF45589F5890EEEC3940840BA7F020294
:101243000361F58312124B2212124F22E0F8A3E03E
:10125300F583888222C0E074F1120302C2EBE58AAF
:1012630060487E00750801750900EE7808120200D7
:10127300AF08E58A5F602CEEC333F8E433F9E82462
:101283001FF582E93402F583E07002A3E0600EE803
:10129300241FF582E93402121245120268EFF45555
:1012A3008AF58A0EEEC3940840BA8091C0E074F1C7
:1012B300120302C2E8E58B60487E007508017509D8
:1012C30000EE7808120200AF08E58B5F602CEEC3D6
:1012D30033F8E433F9E8242FF582E93402F583E0A7
:1012E3007002A3E0600EE8242FF582E934021212A3
:1012F30045120268EFF4558BF58B0EEEC39405404F
:10130300BA02124074F712026AE9FE7B067A107978
:1013130080120CDF8B09A909747F59F9E4C9F8C35A
:101323009428E494004028C3E8943CE494005003D8
:1013330009801CC3E8944AE4940050030980F1C374
:10134300E89454E49400500509090980027904EEF5
:101353006970B6020E21C082C083E91203C2010381
:101363008C136D13741379138013639001E59080CC
:101373001863900280F7639010E590800C638002FD
:10138300E58090023AE06401F0020E4C74F512021B
:101393006AEAFEEBFF750A00750B018056E50B60E8
:1013A30052121446E0FAA3E0FB79021210D77B3CF9
:1013B3007A00790312102F7B3E7A0F790312102FD4
:1013C300750B00750800750900121307E9640460C2
:1013D30006750800750900E5082401F508E50934D8
:1013E30000F509C3E50894F4E5099401A2D265D098
:1013F3003340D61211A1E96401603E121307E96478
:101403000370187401250AC0E08E828F83A3A3E0C2
:10141300F5F0D0E084E5F0F50A8086121307E9645D
:101423000260030213A0E50A700A8E828F83A3A3CE
:10143300E01480E3150A0213A4121446A3A3E0F9EF
:10144300020BCCE50A75F003A4F8A9F08E828F8312
:10145300E028FAA3E0398A82F5832274F512026A3E
:1014630074D41202138A088B09851082851183AC08
:1014730082AD83758302758287740E1201DF740E49
:1014830012025EAC82AD83758302758295741E125F
:1014930001DF90624AE01203F8000A01EE1402BE73
:1014A3001411F41481E21484D01485C41489CA1469
:1014B30091E814A5D614B5DC14FA147C507D02808F
:1014C3003A7C557D0280347C5A7D02802E7C5F7D80
:1014D3000280287C647D0280227C697D02801C7CE2
:1014E3006E7D0280167C737D0280107C787D028085
:1014F3000A7C7D7D0280047C827D02750A04750B63
:1015030000780A1203B1740712025EAA82AB831237
:1015130017C97402120229906249E0C4540F24309F
:10152300C0E0740B12025ED0E0F0AA08AB091217F8
:10153300AD8A0A8B0BAE0AAF0B740E12025EAA823F
:10154300AB831217ADEA2EF8EB3FF9C3E89411E928
:101553009400500BAC08AD09AA82AB8312177785B0
:101563001082851183AA82AB8379011210D7740E7E
:1015730012025EAA82AB8379021210D77AB37B027E
:1015830079031210D7742C120229020BCC74F712B0
:10159300026A7A4A7B0279011210D77ABD7B0279FB
:1015A300021210D790023D74EFF0A374BE1216A975
:1015B30070031211237401900103F075E1EC75E1DE
:1015C300E3803775080175090078081203B19002AA
:1015D300FFE0FCA3E0FD7A3C7B0212172F7402129A
:1015E3000229E4900303F0D2AF9002FEE0600B9077
:1015F300023CE070057901121359900303E060FA8D
:10160300C2AF9002FEE070BB75080080B974F71298
:10161300026A7A437B0279011210D77AC37B02797B
:10162300021210D77AD17B0279031210D7E4900209
:101633003BF090023D7420F0A374251216A97003A9
:10164300121123E4900103F075E1EF75E1EC802FB3
:101653007A037B00120D7C0EEEC3940340239002A9
:1016630039E0701B7401F07A647B00120DAD7901CF
:101673007C3B7D027AEF7BBE120BD1C2AFD2AF7E31
:1016830000A2A0E492E0FF7B067A107980120CDFBF
:101693008B09A909EF6008747F59C3945450B1E4CE
:1016A300900239F080D9F07A3D7B02120B44E96451
:1016B300012290023F7407F0A37420F07419900282
:1016C30041F07401900242F0121140121722120DE0
:1016D300DAE964017003121123D2907ADE7B0212DD
:1016E300145E1211A1E9640170F87A5E7B01120D98
:1016F300AD1210077AEB7B0279011210D77A0B7BBC
:101703000312138FE9FE12100774016E700512168F
:1017130010800874026E7003121590121123225365
:10172300F5FE53FFFE43F70143F3402274F7120221
:101733006A740912025EE0FEA3E0FFEAF8EBF980A7
:10174300188C828D83E088828983F0A3A882A98381
:101753008C828D83A3AC82AD838E088F0974FF25A1
:10176300081E74FF3509FFE5087002E50970D27F92
:10177300020202CA74F812026AEAF8EBF98005A3BE
:10178300AA82AB838A828B83E070F48C828D83E0A0
:10179300A3AC82AD838A828B83F0A3AA82AB8370CE
:1017A300EAE8FAE9FB7F010202CAC082C0838A82A7
:1017B3008B838001A3E070FCE582C39AFAE5839BE7
:1017C300FBD083D0822274F712026A740912025E7C
:1017D300E0FEA3E0FFEAF8EBF98E088F0974FF251A
:1017E300081E74FF3509FFE5087002E50960358CB2
:1017F300828D83E0A3AC82AD838A828B83F0A3AA1C
:1018030082AB8370D4EEFCEFFD74FF2C1E74FF3D9E
:10181300FFEC7001ED600DE48A828B83F0A3AA8252
:0D182300AB8380E1E8FAE9FB7F020202CA14
:04000005000000D324
:00000001FF
