:020000040000FA
:030000000200D328
:030033000217F5BC
:03004B000213801D
:03006B0002173544
:03007B0002178EDB
:1000830002134800000080FB1200E2B900030200E3
:10009300CDE490010178B579028002F0A3D8FCD9B0
:1000A300FA9002B5AA82AB839000E57815790480B3
:1000B30015E493A3AC82AD838A828B83F0A3AA82D7
:1000C300AB838C828D83D8E9D9E71223261200866D
:1000D30075D0007581BF75100175110102008B7910
:1000E30001222D3364426D003064426D003464425A
:1000F3006D003131202D2032343035204D487A00C7
:100103003132202D2032343130204D487A003133C2
:10011300202D2032343135204D487A003134202DC2
:100123002032343230204D487A003135202D2032B0
:10013300343235204D487A003136202D2032343385
:1001430030204D487A003137202D2032343335208A
:100153004D487A003138202D2032343430204D4838
:100163007A003139202D2032343435204D487A003D
:100173003230202D2032343530204D487A00323150
:10018300202D2032343535204D487A003232202D4F
:100193002032343630204D487A003233202D20323D
:1001A300343635204D487A003234202D203234370E
:1001B30030204D487A003235202D20323437352017
:1001C3004D487A003236202D2032343830204D48C5
:1001D3007A005472616E736D69747465720052654E
:1001E300636569766572003130303020506B74730B
:1001F30000313030303020506B7473003130303088
:10020300303020506B747300313030303030302058
:10021300506B7473003130302F7365636F6E6400FD
:1002230035302F7365636F6E640032302F736563EF
:100233006F6E640031302F7365636F6E6400323408
:10024300323000323433300032343331003235321D
:10025300300032353330003235333100323531300E
:10026300003235313100313131300031313131003B
:100273002D2D2D2D002020204343787878782028B9
:1002830020290020202000000000000000000000C2
:10029300000000000000000000000000000000005B
:1002A300002020205449204C5057005045522054E0
:1002B3006573746572005265636569766572005291
:1002C30065616479005045523A2000202F31303067
:1002D3003000525353493A200064426D0052656323
:1002E3007627643A20004A6F79737469636B2050F0
:1002F3007573680073746172742F73746F70005434
:1003030072616E736D69747465720053656E743ACD
:1003130020005045522054657374004368616E6E2B
:10032300656C3A20004F7065726174696E67204D89
:100333006F64653A20005061636B65742072617469
:10034300653A200042757273742053697A653A20C6
:10035300005458204F757470757420506F77657210
:100363003A2000FF0000000000000000000000B57C
:100373000200BB0201C0020242050349C5020BD3BE
:10038300020CE1020DEF020EFD020F0B0310190325
:10039300112703123503134303145103155F031687
:1003A3006D03177B031889031997031A4F0510A5CB
:1003B3000300B10301820502BA0300C40301CF03A2
:1003C30002DB0303E803000010270000A0860100FE
:1003D30040420F008B0504E80364F30332FD03146A
:1003E30007040AAA0504000000000A000000010037
:1003F3000000E8030000E066701008A3E066700ADE
:1004030008A3E066700408A3E06622C3E09608A38D
:10041300E09608A3E09608A3E096A2D265D0332223
:10042300C3E7960809E7960809E7960809E79622BD
:10043300C3E09608A3E09608A3E09608A3E09622FB
:10044300080808EAC0E0EBC0E086F0E7A4FA180960
:1004530086F0E7A42AFA180986F0E7A42AFA18090D
:1004630086F0E7A42AFA1986F0E7A4FBE5F02AFA56
:10047300190886F0E7A42BFBE5F03AFA190886F091
:10048300E7A42BFBE5F03AFA18180986F0E7A4C5B0
:10049300F02BFBE43AFA1908E7C5F0C6A426F6E503
:1004A300F03BFBE43AFA1886F0E7A4F6E5F00826F9
:1004B300F6E43B08F6E43A08F6D0E0FBD0E0FA2293
:1004C300E4CFC0E0E4CEC0E0E4CDC0E0E4CCC0E0E3
:1004D30075F020C3E633F608E633F608E633F6088C
:1004E300E633F6181818EC33FCED33FDEE33FEEF6C
:1004F30033FFC3EC9709ED9709EE9709EF971919A5
:1005030019400FFFEC97FC09ED97FD09EE97FE19D3
:100513001906D5F0BEECF709EDF709EEF709EFF789
:10052300191919D0E0FCD0E0FDD0E0FED0E0FF22A5
:1005330012059B1818181204C312058A19191922D7
:1005430012058A191919080808E618181820E7E08F
:100553001204C312059B18181822090909E719196F
:100563001920E7DC080808E618181820E703020436
:10057300C312059B1818181204C312059B181818E8
:1005830012058A19191922E4C397F709E497F709A1
:10059300E497F709E497F722E4C396F608E496F69E
:1005A30008E496F608E496F622E026F608A3E03679
:1005B300F608A3E036F608A3E036F622E026F008B4
:1005C300A3E036F008A3E036F008A3E036F022C338
:1005D300E0C696F608A3E0C696F608A3E0C696F62C
:1005E30008A3E0C696F622E0F608A3E0F608A3E027
:1005F300F608A3E0F622E6F008A3E6F008A3E6F087
:1006030008A3E6F022CAC0E0E6F0A308DAFAD0E0D5
:10061300FA22CAC0E0E0A3C582CCC582C583CDC59A
:1006230083F0A3C582CCC582C583CDC583DAE6D06A
:10063300E0CA22C3E498F8E499F91206778026C346
:10064300E49AFAE49BFBE920E7E9120677E498F8D9
:10065300E499F922C3E498F8E499F9120677E49847
:10066300F8E499F9C3E49AFAE49BFB22EB20E7CF81
:10067300E920E7E0B90010BB0008E88AF084F8AA93
:10068300F022E4FBC8FA22EB70227B10C833C8C9FE
:1006930033C9335007C39AC3DBF280069A50012A49
:1006A300DBEAC833F4C8C933F4C9FA2275F008E4A5
:1006B300C833C8C933C933C99AC99B5004C92AC9A5
:1006C3003BD5F0ECFBC833F4C8E4C9FA227004222A
:1006D300600D18C6C333C608C633C6D5E0F4182266
:1006E300251010AF08F510400215118008F51040D1
:1006F300021511D2AF22C0D0251010AF08F510504B
:100703000205118008F51050020511D2AFD0D02296
:100713002510F58210AF08F510400215118008F579
:100723001040021511D2AF851183222510F582E402
:100733003511F58322E4732510C582C0E0E5113439
:10074300FFC583C0E0E510C3958224F9F8E4C5A88A
:10075300858311858210C5A8E8CEF0A3E520F0A318
:100763007808E608F0A3DEFAEFF0A3E58124FBF8AE
:10077300E608F0A3E608F0A30808E608F0A3E608F5
:10078300F0A315811581D0E0FED0E0F81581158125
:10079300E8C0E0EEC0E022851183851082E0A3FE6D
:1007A300E0A3F5207808E0A3F608DFFAE0A3FFE072
:1007B300A3C0E0E0A3C0E0E0A3C0E0E0A3C0E0E4A6
:1007C300C5A8858210858311C5A8D083D08222C095
:1007D300D02510C582C0E0E51134FFC583C0E0E534
:1007E30010C3958224F310AF08858311858210808E
:1007F30008858311858210D2AFC8F0A3E9F0A3EA7C
:10080300F0A3EBF0A37908E709F0A3D8FAECF0A37F
:10081300EDF0A3EEF0A3EFF0A3D0E0F0A3D0E0F06F
:10082300A3D0E0F0A3E520F0A3E5F0F0A322851127
:1008330083851082E0C0E0A3E0F9A3E0FAA3E0FB24
:10084300A37808E0F608A3DFFAE0FCA3E0FDA3E049
:10085300FEA3E0FFA3E0C0E0A3E0C0E0A3E0F5D087
:10086300A3E0F520A3E0A3F5F0E4C5A885831185F3
:100873008210C5A8D082D083D0E0F8D0E0327404CF
:10088300800474028000C0E0F404120713D0E01265
:1008930006082274048000CCC0E0EDC0E0E510C37C
:1008A3009CCCAD1150011D10AF068C108D1180062C
:1008B3008C108D11D2AF120615D0E0FDD0E0FC22D2
:1008C300D083D082C5F0E493A3C5F0C395F0F5F0CF
:1008D300E493A3C395F04005E5F0048001E475F0CB
:1008E30002A42582F582E5F03583F583E493A3C062
:1008F300E0E493C0E022D083D082CCC0E0E493A3B1
:1009030060061209231470FAE493A36006120942E5
:100913001470FAD0E0FCE493A3C0E0E493C0E022B7
:10092300C0E0E493A3D39C5010E493A3C39C400A78
:10093300D0E0D0E0D0E0020916A3A3A3D0E022C008
:10094300E0E493A36C7009D0E0D0E0D0E002091694
:10095300A3A3D0E02200000000000000000070F814
:10096300F870000000003878000078380020F8F8AC
:1009730020F8F8200060F09C9C901000006060005C
:1009830080C0600000B0F8C8F8B000800000407874
:10099300380000000000C0E030180800000008180C
:1009A30030E0C0000080A0E0C0C0E0A080008080F4
:1009B300E0E08080000000000000000000808080F4
:1009C3008080808000000000000000000000000024
:1009D30080C0603000F0F808C868F8F0002020F00C
:1009E300F80000000030380888F8700000101888FC
:1009F30088F870000080C06030F8F80000F8F888CC
:100A03008888080000E0F0988888000000383808DB
:100A13000888F8780070F8C888F870000070F888C3
:100A230088F8F000000000606060000000000060D3
:100A3300606000000080C060301808000000404083
:100A430040404040000008183060C0800010188803
:100A5300C878300000F0F808C8C8F8F000E0F018D3
:100A630018F0E0000008F8F88888F87000E0F01843
:100A7300080838300008F8F80818F0E00008F8F81B
:100A83008888C8180008F8F88888D83800E0F01873
:100A93000808383000F8F88080F8F800000008F8FB
:100AA300F80800000000000008F8F8080008F8F84B
:100AB30080E078180008F8F80800000000F8F870E3
:100AC300E070F8F800F8F8E0C080F8F800E0F018FB
:100AD3000818F0E00008F8F88888F87000E0F018CB
:100AE3000818F0E00008F8F88888F8700070F888B3
:100AF30088383000001808F8F808180000F8F800E3
:100B030000F8F80000F8F80000F8F80000F8F80022
:100B13008000F8F8003878C0C07838000078F88092
:100B230080F8780000381888E8781818000000F872
:100B3300F8080800003060C08000000000000008D2
:100B430008F8F800002030180C18302000000000CE
:100B5300000000000000000C1C10000000004040DA
:100B630040C080000008F8F84040C0800080C040CA
:100B730040C080000080C04048F8F8000080C040BA
:100B830040C080000080F0F8889810000080C040CA
:100B93004080C0400008F8F88040C080000040401A
:100BA300D8D800000000004040D8D8000008F8F86A
:100BB3000080C04000000808F8F8000000C0C040F2
:100BC300C040C08000C0C04040C080000080C04022
:100BD30040C080000040C0804040C0800080C040D2
:100BE3004080C0400040C0C000C0C0800080C04002
:100BF30040C080000040E0F04040400000C0C00022
:100C030000C0C00000C0C00000C0C00000C0C000E1
:100C13000000C0C00040C0800080C0400000C0C0D1
:100C23000000C0C000C0404040C0C0000080C07091
:100C33003808080000000000787800000008083831
:100C430070C080000030380818302038080080C099
:100C530060C0800000000000000000000000000DE4
:100C63000D000000000000000000000000020F0F54
:100C7300020F0F020004041C1C070300000C0603F0
:100C8300010C0C0000070F080D070F0900000000FE
:100C93000000000000000103060C08000000080C1F
:100CA300060301000000020301010302000000002B
:100CB300030300000000101C0C0C000000000000E7
:100CC300000000000000000C0C0C0000000C0603E8
:100CD3000100000000070F0B09080F070008080FA9
:100CE3000F080800000C0E0B090C0C0000040C0884
:100CF300080F070000010101090F0F0900040C0888
:100D0300080F070000070F08080F07000000000E78
:100D13000F01000000070F08090F07000000080C6F
:100D23000F03000000000006060600000000001686
:100D33001E0E000000000103060C08000000010164
:100D4300010101010000080C060301000000000D71
:100D53000D00000000070F0809090901000F0F012A
:100D6300010F0F0000080F0F08080F070003070CFF
:100D730008080E0600080F0F080C070300080F0FE2
:100D83000808090C00080F0F080001000003070CF6
:100D930008090F0F000F0F00000F0F000000080FCE
:100DA3000F08000000070F08080F070000080F0FC7
:100DB30000030F0C00080F0F08080E0F000F0F00A1
:100DC30000000F0F000F0F0001030F0F0003070CAC
:100DD300080C070300080F0F0800000000030704B6
:100DE300161F1F1300080F0F00010F0E00060E0839
:100DF300090F06000000080F0F08000000070F0886
:100E0300080F07000003070C0C07030000010F0E77
:100E1300010E0F01000E0F01010F0E000000080F5D
:100E23000F080000000C0F0B08080C0E0000000F49
:100E33000F080800000000000103060C0000000872
:100E4300080F0F0000000000000000000010101049
:100E530010101010100000000000000000060F0921
:100E630009070F0800080F0708080F0700070F08F6
:100E7300080C040000070F0808070F0800070F09F4
:100E8300090D050000080F0F0800000000133724A8
:100E9300243F1F0000080F0F00000F0F0000080879
:100EA3000F0F080800183820203F1F0000080F0FFD
:100EB30001030E0C000008080F0F0808000F0F00B5
:100EC30007000F0F000F0F00000F0F0000070F08A0
:100ED300080F070000203F3F28080F0700070F08EF
:100EE300283F3F8000080F0F0900010100040D098E
:100EF3000A0E04000000070F080C040000070F0887
:100F030008070F080003070C0C07030000030F0C6E
:100F1300030C0F0300080C0703070C08002023270A
:100F2300341C0F03000C0E0A09090C000000010712
:100F33000E080800000000000F0F00000008080E54
:100F43000701000000000000000000000007070484
:100F53000404070700C082C083121326D2AF7901AD
:100F63007ABD7B0112130D9001BDE0C2E7F0640569
:100F7300703779051210325004D2F08002C2F0A209
:100F8300F0E492E090053EF09001C2E0A2E7400356
:100F930002102A9001C0E0FA900141E06A60030266
:100FA300102A7401900142807DE024F590053BF006
:100FB3009001BDE0F91210325004D2F08002C2F069
:100FC300A2F0E492E090053EF09001C51211DF908B
:100FD3000537E8F0A3E9F090053C74C7F0A374016A
:100FE300F090053BE0F83395E0F9E824C7F8E934DD
:100FF30001F988828983E090053F121D53A3E0A283
:10100300E7501C900536E0FA9001C0E06A6010904A
:1010130001BEE054DF644170067401900540F09016
:1010230001C0E0900536F0C2AF1213370217267ADB
:10103300BE7B0112130D9001BEE0A2E52274F512EE
:10104300073A8A828B831212E9E9640170047901F9
:101053008073C2AFA882A983900148E8F0A3E9F0A6
:1010630090053CE4F0A3F07401900143F09005B9BE
:1010730078081205EA90014478081205F975F0051D
:101083001217E5A3A3A3A3E0A424D490618F12179E
:10109300E41211DFE8906174F0E99061751211DBDD
:1010A300E8906172F0E9906173F0A2AFE492E0FA24
:1010B300C2AF90023D7458F0A3740FF0EAA2E0921D
:1010C300AFD2AF79007F0402079A74F612073AEAA7
:1010D300FEEBFF8C088D09890A900143E0700675C9
:1010E300E1EC75E1E3E9C394674003750A67906136
:1010F30093E0542270F8121326740B250A90014AC8
:10110300F01211D36004786180027841E890014BBA
:10111300F0748890014CF0900141E090014D121160
:10112300DB90014EE8F0A3E9F0900150EEF0A3EF5D
:101133001217E41211DF900152E8F0A3E9F07A00EC
:1011430080208A82A882E50828F582E5093400F523
:1011530083E0C0E0E82454F582E43401F583D0E071
:10116300F00AEAC3950A40DA740A250AFB75E1EE30
:101173007591FD7A0080118A08E508244AF582E416
:101183003401F583E0F5D90AEAC39B40EA12133729
:1011930075E1E9E591A2E150FA7591FD1211D36071
:1011A3000FE4900142F07A4A7B0212128BE0600452
:1011B300790080027901900143E0700675E1EF75D3
:1011C300E1ECE97006900141E004F07F0302079A25
:1011D3001211E5A3A3A3E022F01211E5E0F8A3E0C6
:1011E300F9229001481217ECA3A322C008C0097585
:1011F3000801750900EB78081206D0E50845F2F5F9
:10120300F2C28DEA494BF5B6A28D50FCE5BBFDE574
:10121300BAFC750801750900EB78081206D0E508D9
:10122300F455F2F5F2ECFAEDFBD009D00822748004
:1012330055C6FA53BEFBE59DA2E550FAE59DA2E231
:1012430040F400740169700774494AF5C68005E9E2
:1012530070028AC6E5C6FAE59EFBEA6B70F943BEE7
:101263000422E59EA2E64003790122E9700553C6F4
:101273007F8008740169700343C680E5C6FAE59E62
:10128300FBEA6B70F9790022EBC313FBEA13FAEA6A
:10129300F8EBF974FF28FA74FF39FB7400687003E4
:1012A30074006960130000000000000000000000EB
:1012B30000000000000080D72274F812073AEAFE0B
:1012C300EBFFEEF8EFF974FF28FE74FF39FF7400AB
:1012D30068700374006960097AE87B0312128B80DB
:1012E300E17F0102079AC082C083906189E0446074
:1012F300F074099061FAF074159061B2F0E49061B2
:10130300AEF01213377900021726C082C083800D16
:10131300E5D98A828B83F0A3AA82AB8319E970F0A3
:10132300021726C082C0839061A3E0C2E6F0539AFD
:10133300FE021726C082C0839061A3E0D2E6F04389
:101343009A01021726C0E074F21207D2A2AFE49208
:10135300E0FEC2AFE5E9A2E6501990023DE070025B
:10136300A3E0600990023D1217E8120738759B004D
:1013730053E9BFEEA2E092AF7F01020831C0E074EF
:10138300F21207D290023FE07002A3E060099002DC
:101393003F1217E812073880DFC292C280C2F98970
:1013A300F9A2F950FC00000000D29222C292D2802E
:1013B300C2F989F9A2F950FC80EB74F112073A746F
:1013C300FE1206E3890BEAFEEBFF12241FEAF50C7B
:1013D300851082851183EEF0A3EFF074FF250BC314
:1013E30033FA7900121491750A0080238E828F8359
:1013F300E0F874E0281215CD1206D085080E850991
:101403000FA3AE82AF83F50D12147B40FB050AE5F3
:101413000AC3950C40D6E50BC33314FA79001214B2
:1014230091750A0080418510828511831217E8E0C7
:10143300F8744028F508E41215D11206D085080E79
:1014430085090F851082851183E02401F8A3E03418
:1014530000F9851082851183E8F0A3E9F0750D008A
:1014630012147B40FB050AE50AC3950C40B87402CD
:101473001206F97F0802079A850D08E508250EF87C
:10148300E4350F1215BB050DE50DC3940822EEC01C
:10149300E0E9FE74B04AF912139CEEC4540F4410F1
:1014A300F912139C740F5EF912139CD0E0FE2253C1
:1014B300F3FED28043FD0153F4FBD29243FE045367
:1014C300F37FC28743FD8079AF12139C79401213D7
:1014D3009C79A012139C79A612139C79A412139CD5
:1014E30079A212139C79C812139C792F12139C7939
:1014F300F812139C790012139C798112139C79388A
:1015030012139C12150A2274F812073A7F007E0008
:10151300EFFAEEF912149179001213AF0EEEC394A1
:101523008440ED0FEFC3940840E47F0102079A74EF
:10153300F312073A890A8A0B8B0CEAC3941050738F
:10154300E9C39405506D74FF250AC333FAE50B33E1
:10155300333354F8F9121491850C0874E0250812FA
:1015630015CD1206D0AE08AF09F50D850D08E508B7
:101573002EF8E43F12148640F2E50AC33324FFFA3F
:10158300E50B33333354F8F91214917440250CF5F9
:1015930008E41215D11206D0AE08AF09F50A850A80
:1015A30008E5082EF8E43F1215BB050AE50AC394C3
:1015B3000840EB7F0602079AF9E82458F582E934DC
:1015C30009F583E493F91213AF22F50874FF34008D
:1015D300F509740378082274F712073AEA7001EBED
:1015E30060307C008A828B83E06013C0E012161A9D
:1015F300D0E0F08A828B83A3AA82AB838006121683
:101603001A7420F00CECC3941040D97A417B021277
:1016130013BD7F0202079A8C08E5082441F582E492
:101623003402F5832274F812073AECFEEDFF7408D6
:1016330012072E1211DF88828983EA7001EB60059D
:1016430079011215DAEE7001EF6009EEFAEFFB791A
:10165300021215DAE5827002E5836009AA82AB8380
:1016630079031215DA02152D79011219497902123B
:101673001949790312194979041219497A327B00FD
:101683001212BC80E37900121265E960107901122D
:1016930012317900121265E9600312166B79001298
:1016A300123143FE01C29043FE02C29143FE10C2B7
:1016B3009443FD02C28112172B12230D43F10243FF
:1016C300F48043F44043F420E59EA2E0E492E02456
:1016D3000FFA75FB8075F80074204AF5FC75FA5310
:1016E3001214B2D2AF22C082C083790012172BA288
:1016F3008150227800A281500478007900E8240107
:1017030008E93400F9C3E894F4E99401A2D265D05E
:101713003340E2790153F3FD90027CE0A2E0928131
:1017230043FD02D083D0822253F3FD53FDFD438F4B
:101733000222C0E074F11207D2C2C5E589603C7E83
:1017430000750801750900EE78081206D0AF08E5A8
:10175300895F6020EEC333F8E433F9121783E07036
:1017630002A3E060091217831217E8120738EFF497
:101773005589F5890EEEC3940840C67F02020831ED
:10178300E82451F582E93402F58322C0E074F112B2
:1017930007D2C2EBE58A603C7E007508017509003B
:1017A300EE78081206D0AF08E58A5F6020EEC333F7
:1017B300F8E433F91217D9E07002A3E060091217B5
:1017C300D91217E8120738EFF4558AF58A0EEEC3DB
:1017D300940840C680A5E82461F582E93402F583C4
:1017E30022F09001481217EC22E0F8A3E0F5838879
:1017F3008222C0E074F11207D2C2E8E58B603C7E1E
:1018030000750801750900EE78081206D0AF08E5E7
:101813008B5F6020EEC333F8E433F9121841E070B4
:1018230002A3E060091218411217E8120738EFF417
:10183300558BF58B0EEEC3940540C602177EE82444
:1018430071F582E93402F5832274F712073A7E00B8
:10185300A2A0E492E0FF7B067A1079801211EE8B4E
:1018630009A909EF6008747F59C3945450097E0095
:10187300E490027BF080237A037B0012128B0EEE3E
:10188300C3940340CB90027BE0700D7401F0FE7AA9
:10189300647B001212BC80027E00EEF902161574FE
:1018A300F712073AE9FE7B067A1079801211EE8B64
:1018B30009A909747F59F9E4C9F8C39428E4940089
:1018C3004028C3E8943CE49400500309801CC3E817
:1018D300944AE4940050030980F1C3E89454E494D7
:1018E30000500509090980027904EE6970B60216F1
:1018F30015C082C083E91208C301031C1908190C1F
:101903001910191419D2908010D291800CD294809E
:1019130008D281740190027CF0021726C082C08332
:10192300E91208C301034619331937193B193F1943
:10193300C290800FC291800BC2948007C281E49051
:10194300027CF0021726C082C083E91208C3010398
:101953007C195D19641969197019639001E5908008
:101963001863900280F7639010E590800C63800207
:10197300E58090027CE06401F002172674F11207FF
:101983003A74FB1206E3740112072EEAF0A3EBF09C
:10199300A3ECF0A3EDF07A7D7B02740112072EC055
:1019A30082C0839005B978081205EAD083D0827883
:1019B3000812040E50227401851082851183F012DF
:1019C300072E78081205EA780812059B740112079E
:1019D3002E78081205F98008E4851082851183F0BA
:1019E300740112072E780C1205EA9005BD780812CF
:1019F30005EA780C790812055DE50824308A828BA4
:101A030083F0A3AA82AB83740112072E780C12050C
:101A1300EA9005BD78081205EA780C790812055D8D
:101A2300740112072E780C1205F9740112072EC0E7
:101A330082C0839005B978081205EAD083D08278F2
:101A4300081203F9709A851082851183E0600B7484
:101A53002D8A828B83F0A30AAB83E4121A90787DDC
:101A6300790280198A828B83E0FC88828983E01261
:101A73001A90EC88828983F0A3A882A983C3E89A89
:101A8300E99B40E07A7D7B0274050214738A828BA2
:101A930083F0EA24FF1AEB34FFFB2274F512073AB2
:101AA300EAFEEBFF750A00750B018056E50B6052E9
:101AB300121B52E0FAA3E0FB79021215DA7B3C7A9F
:101AC3000079031215327B3E7A0F790312153275B2
:101AD3000B007508007509001218A2E9640460067A
:101AE300750800750900E5082401F508E5093400C7
:101AF300F509C3E50894F4E5099401A2D265D0334E
:101B030040D61220E7603E1218A2E96403701874ED
:101B130001250AC0E08E828F83A3A3E0F5F0D0E015
:101B230084E5F0F50A80891218A2E96402600302D1
:101B33001AAFE50A700A8E828F83A3A3E01480E3B1
:101B4300150A021AB3121B52A3A3E0F90210C8E547
:101B53000A75F003A4F8A9F08E828F83E028FAA314
:101B6300E0398A82F5832274F512073A74D4120697
:101B7300E38A088B09851082851183AC82AD837556
:101B83008304758248740E120615740E12072EAC68
:101B930082AD83758304758256741E120615906296
:101BA3004AE01208F9000A01FA1B02CA1B11001CC1
:101BB30081EE1B84DC1B85D01B89D61B91F41BA5EE
:101BC300E21BB5E81B061C7C117D04803A7C167D64
:101BD3000480347C1B7D04802E7C207D0480287C43
:101BE300257D0480227C2A7D04801C7C2F7D04803B
:101BF300167C347D0480107C397D04800A7C3E7D14
:101C03000480047C437D04750A04750B00780A1272
:101C13000885740712072EAA82AB8312243B740231
:101C23001206F9906249E0C4540F2430C0E0740BEB
:101C330012072ED0E0F0AA08AB0912241F8A0A8BE0
:101C43000BAE0AAF0B740E12072EAA82AB831224BB
:101C53001FEA2EF8EB3FF9C3E89411E99400500B07
:101C6300AC08AD09AA82AB831223E98510828511E2
:101C730083AA82AB8379011215DA740E12072EAA96
:101C830082AB8379021215DA7A747B047903121515
:101C9300DA742C1206F90210C874F212073A890E8C
:101CA3008A0C8B0DECFEEDFF740E12072E780812D2
:101CB30005EAAA08AB09AC0AAD0B12197F8A088B97
:101CC30009A808A9097A00E50C7002E50D602085D2
:101CD3000C82850D83E06017C0E0121D45D0E0F053
:101CE300850C82850D83A385820C85830D803E88B8
:101CF300828983E06011C0E0121D45D0E0121D53BC
:101D0300A3A882A9838026EE7001EF601A8E828FCA
:101D130083E06013C0E0121D45D0E0F08E828F8314
:101D2300A3AE82AF838006121D457420F00AEAC376
:101D3300941040937A897B02A90E1215DA7F070269
:101D4300079A8A08E5082489F582E43402F5832298
:101D5300F08882898322C082C08374019002B3F029
:101D6300021726C082C0839002B4E06401F0E060F1
:101D730007D2B943E4028002C2B902172674F112F2
:101D8300073A74AC1206E3900101C082741412077F
:101D93002EAC82AD83758301D08274401206158503
:101DA3001082851183F09005B978081205EA74044E
:101DB30012072E78081205F99005B978081205EA7A
:101DC300741012072E78081205F99005B9780812D5
:101DD30005EA740C12072E78081205F9740212072B
:101DE3002EE4F0A3F0740112072EE4F0900299742C
:101DF300EFF0A374BE12231A700312166B740190D2
:101E03000143F075E1EC75E1E312150A750892756B
:101E1300090478081208857C897D047A7E7B041284
:101E2300162874021206F9021F54740812072EC0F2
:101E330082C0839005C178081205EAD083D08278E6
:101E4300081205AC740412072E78081205F99005E0
:101E5300B978081205EA741012072E78081205F9EA
:101E63009005B978081205EA740C12072E78081247
:101E730005F99005C178081205EA741012072E7847
:101E8300081205BF1220E7702C740112072E74018B
:101E9300F09005C178081205EA741012072E78082D
:101EA3001205F99005B978081205EA740C12072E89
:101EB30078081205F9740C12072E78081205EA90B7
:101EC30005C5780C1205EA7808790C120443740CE2
:101ED30012072EC082C083741012072E780C1205CD
:101EE300EAD083D082780C1205AC7808790C1204FE
:101EF300C378081208817C9E7D047A987B0479015B
:101F03001223071206F9740212072E1211DF7A2028
:101F13007B0012066F8808E9F5093395E0F50AF5A9
:101F23000B78081208817CAC7D047AA57B047902C6
:101F33001223071206F9741012072E1208967C005A
:101F43007D007AB07B041223051206F97903121976
:101F53001F900540E060FAC2AF90053BE0FAC394DE
:101F63006750048A088003750867750900780812AA
:101F7300088590053CE0FCA3E0FD7AA97B021223CF
:101F8300A174021206F990053FE0F83395E0F99049
:101F9300054EE0FAE8C39AFEE99400FFE490054099
:101FA300F0D2AF90053BE0FAC394675003EA60A117
:101FB30079031218F49002A978081205EA7408123A
:101FC300072E78081205F9740112072EE0601B74BE
:101FD3000812072E78081205EA740412072E7808EF
:101FE3001205F9740112072EE4F08510828511831E
:101FF300E0C333F8E433F9741412072EE58228F8AA
:10200300E58339F988828983E0FAA3E0FB7402123D
:10201300072EC3E09AF0A3E09B121D53EEF0A3EF4B
:10202300121D531211DF740212072EE028F0A3E0F1
:1020330039F0851082851183E004F064207002E496
:10204300F0740412072EC082C083740812072E781E
:10205300081205EAD083D08278081203F97015902C
:1020630005C178081205EA740412072E78081205D0
:10207300BF021E75740412072EC082C08374081237
:10208300072E78081205EAD083D082780812043329
:102093004003021E2D740C12072EC082C0837408E5
:1020A30012072E78081205EAD083D0827808120529
:1020B300AC740412072E78081205D2740C12072E82
:1020C30078081205F9740812072EC082C0839005A0
:1020D300C178081205EAD083D08278081205AC745F
:1020E30004021E6D1216E9E964012274F112073A23
:1020F30074FC1206E39005B978081205EA90029978
:102103007420F0A3742512231A700312166B7A2419
:102113007B0579011215DA7A4B7B05121A9EE912B7
:1021230008C300023E212F21332137217AB58006CF
:102133007AD580027AF5EA906190F07A177B057977
:10214300011215DA7AA77B05121A9EE9F50C750DB3
:10215300007402780C1206D0E50C2497F582E50D85
:102163003405F583780C1205EA851082851183788E
:102173000C1205F9E4900143F075E1EF75E1EC7A97
:10218300097B0579011215DA7AB67B05121A9EE9E5
:1021930078007980FA7B00120677880C890D43E476
:1021A3000CE5E4E9942040097EFF7FFF12166B8063
:1021B3000B7403780C1206D0AE0CAF0DEFF5DBEE0B
:1021C300F5DA75E54453AFFEC2B9A2AFE492E0F885
:1021D300C2AF90023F7459F0A3741DF0E8A2E092DD
:1021E300AF12230D9005B9780C1205EA90029F787F
:1021F3000C1205F97A00EA24A3F582E43402F5838C
:10220300EAF00AEAC3940640ED12150A750CC77585
:102213000D04780C1208857CB97D047A7E7B0480DA
:10222300339005B978081205EA9005B9780C1205C0
:10223300EA90029F780C1205F912150A7903121914
:102243001F750CC7750D04780C1208857CB97D04C5
:102253007AE57B0412162874021206F912184CE967
:1022630060FA121D6612150A750C00750D00780CC4
:102273001208857CD27D047A7E7B041216287402B0
:102283001206F980047A00EAF09002B4E060921238
:10229300184CE96003121D66851082851183780C42
:1022A3001205EA780C7908120423504C9002B3E02B
:1022B300640170D5790A7C9F7D027AEF7BBE121090
:1022C300CD9005C1780C1205EA90029F780C120597
:1022D300BF9005C178081205AC78081208817C000C
:1022E3007D007ADE7B041223051206F9E49002B323
:1022F300F0790312194980919002B4E070877A0152
:1023030080857903121C9C74042253F5FE53FFFE4F
:1023130043F70143F34022F07A997B02121040E91C
:10232300640122E49002B3F09002B4F090029B7433
:1023330007F0A37420F0E490029EF01216881212A4
:10234300E9E96401700312166B79011218F47A7EBD
:102353007B04121B6A1220E770FB7A5E7B01121268
:10236300BC12150A7AEE7B0479011215DA7A7F7BA7
:1023730005121A9EE990029DF07AF87B0479011206
:1023830015DA7A887B05121A9EE9FA70051220EE97
:10239300800874016A7003121D8012166B2274F791
:1023A30012073A740912072EE0FEA3E0FFEAF8EBE6
:1023B300F980188C828D83E088828983F0A3A882B8
:1023C300A9838C828D83A3AC82AD838E088F09741D
:1023D300FF25081E74FF3509FFE5087002E5097043
:1023E300D27F0202079A74F812073AEAF8EBF980EF
:1023F30005A3AA82AB838A828B83E070F48C828DDF
:1024030083E0A3AC82AD838A828B83F0A3AA82ABE1
:102413008370EAE8FAE9FB7F0102079AC082C0836E
:102423008A828B838001A3E070FCE582C39AFAE57C
:10243300839BFBD083D0822274F712073A7409126C
:10244300072EE0FEA3E0FFEAF8EBF98E088F09748C
:10245300FF25081E74FF3509FFE5087002E50960D2
:10246300358C828D83E0A3AC82AD838A828B83F02B
:10247300A3AA82AB8370D4EEFCEFFD74FF2C1E7411
:10248300FF3DFFEC7001ED600DE48A828B83F0A3C6
:0F249300AA82AB8380E1E8FAE9FB7F0202079A95
:04000005000000D324
:00000001FF
